{
  "_format": "hh-sol-artifact-1",
  "contractName": "ProjectVerification",
  "sourceName": "contracts/ProjectVerification.sol",
  "abi": [
    {
      "inputs": [],
      "stateMutability": "nonpayable",
      "type": "constructor"
    },
    {
      "anonymous": false,
      "inputs": [
        {
          "indexed": true,
          "internalType": "string",
          "name": "projectName",
          "type": "string"
        },
        {
          "indexed": true,
          "internalType": "string",
          "name": "version",
          "type": "string"
        },
        {
          "indexed": false,
          "internalType": "string",
          "name": "gitCommitHash",
          "type": "string"
        },
        {
          "indexed": false,
          "internalType": "address",
          "name": "deployer",
          "type": "address"
        }
      ],
      "name": "CodebaseHashStored",
      "type": "event"
    },
    {
      "anonymous": false,
      "inputs": [
        {
          "indexed": true,
          "internalType": "string",
          "name": "projectName",
          "type": "string"
        },
        {
          "indexed": true,
          "internalType": "string",
          "name": "version",
          "type": "string"
        },
        {
          "indexed": false,
          "internalType": "string",
          "name": "environment",
          "type": "string"
        },
        {
          "indexed": false,
          "internalType": "string",
          "name": "contractAddress",
          "type": "string"
        }
      ],
      "name": "DeploymentRecorded",
      "type": "event"
    },
    {
      "anonymous": false,
      "inputs": [
        {
          "indexed": true,
          "internalType": "string",
          "name": "projectName",
          "type": "string"
        },
        {
          "indexed": true,
          "internalType": "string",
          "name": "version",
          "type": "string"
        },
        {
          "indexed": false,
          "internalType": "bool",
          "name": "isPassing",
          "type": "bool"
        },
        {
          "indexed": false,
          "internalType": "uint256",
          "name": "vulnerabilitiesFound",
          "type": "uint256"
        }
      ],
      "name": "SecurityReportStored",
      "type": "event"
    },
    {
      "anonymous": false,
      "inputs": [
        {
          "indexed": true,
          "internalType": "string",
          "name": "projectName",
          "type": "string"
        },
        {
          "indexed": true,
          "internalType": "string",
          "name": "version",
          "type": "string"
        },
        {
          "indexed": false,
          "internalType": "bool",
          "name": "isVerified",
          "type": "bool"
        }
      ],
      "name": "VerificationStatusUpdated",
      "type": "event"
    },
    {
      "inputs": [
        {
          "internalType": "string",
          "name": "",
          "type": "string"
        },
        {
          "internalType": "uint256",
          "name": "",
          "type": "uint256"
        }
      ],
      "name": "codebaseHashes",
      "outputs": [
        {
          "internalType": "string",
          "name": "projectName",
          "type": "string"
        },
        {
          "internalType": "string",
          "name": "version",
          "type": "string"
        },
        {
          "internalType": "string",
          "name": "gitCommitHash",
          "type": "string"
        },
        {
          "internalType": "string",
          "name": "sourceCodeHash",
          "type": "string"
        },
        {
          "internalType": "string",
          "name": "dependenciesHash",
          "type": "string"
        },
        {
          "internalType": "string",
          "name": "configHash",
          "type": "string"
        },
        {
          "internalType": "string",
          "name": "buildArtifactsHash",
          "type": "string"
        },
        {
          "internalType": "string",
          "name": "deploymentHash",
          "type": "string"
        },
        {
          "internalType": "uint256",
          "name": "timestamp",
          "type": "uint256"
        },
        {
          "internalType": "address",
          "name": "deployer",
          "type": "address"
        },
        {
          "internalType": "bool",
          "name": "isVerified",
          "type": "bool"
        }
      ],
      "stateMutability": "view",
      "type": "function"
    },
    {
      "inputs": [
        {
          "internalType": "string",
          "name": "",
          "type": "string"
        },
        {
          "internalType": "uint256",
          "name": "",
          "type": "uint256"
        }
      ],
      "name": "deploymentRecords",
      "outputs": [
        {
          "internalType": "string",
          "name": "projectName",
          "type": "string"
        },
        {
          "internalType": "string",
          "name": "version",
          "type": "string"
        },
        {
          "internalType": "string",
          "name": "environment",
          "type": "string"
        },
        {
          "internalType": "string",
          "name": "contractAddress",
          "type": "string"
        },
        {
          "internalType": "string",
          "name": "deploymentTxHash",
          "type": "string"
        },
        {
          "internalType": "uint256",
          "name": "gasUsed",
          "type": "uint256"
        },
        {
          "internalType": "uint256",
          "name": "timestamp",
          "type": "uint256"
        },
        {
          "internalType": "address",
          "name": "deployer",
          "type": "address"
        }
      ],
      "stateMutability": "view",
      "type": "function"
    },
    {
      "inputs": [
        {
          "internalType": "string",
          "name": "_projectName",
          "type": "string"
        }
      ],
      "name": "getDeploymentCount",
      "outputs": [
        {
          "internalType": "uint256",
          "name": "",
          "type": "uint256"
        }
      ],
      "stateMutability": "view",
      "type": "function"
    },
    {
      "inputs": [
        {
          "internalType": "string",
          "name": "_projectName",
          "type": "string"
        }
      ],
      "name": "getHashCount",
      "outputs": [
        {
          "internalType": "uint256",
          "name": "",
          "type": "uint256"
        }
      ],
      "stateMutability": "view",
      "type": "function"
    },
    {
      "inputs": [
        {
          "internalType": "string",
          "name": "_projectName",
          "type": "string"
        }
      ],
      "name": "getLatestCodebaseHash",
      "outputs": [
        {
          "components": [
            {
              "internalType": "string",
              "name": "projectName",
              "type": "string"
            },
            {
              "internalType": "string",
              "name": "version",
              "type": "string"
            },
            {
              "internalType": "string",
              "name": "gitCommitHash",
              "type": "string"
            },
            {
              "internalType": "string",
              "name": "sourceCodeHash",
              "type": "string"
            },
            {
              "internalType": "string",
              "name": "dependenciesHash",
              "type": "string"
            },
            {
              "internalType": "string",
              "name": "configHash",
              "type": "string"
            },
            {
              "internalType": "string",
              "name": "buildArtifactsHash",
              "type": "string"
            },
            {
              "internalType": "string",
              "name": "deploymentHash",
              "type": "string"
            },
            {
              "internalType": "uint256",
              "name": "timestamp",
              "type": "uint256"
            },
            {
              "internalType": "address",
              "name": "deployer",
              "type": "address"
            },
            {
              "internalType": "bool",
              "name": "isVerified",
              "type": "bool"
            }
          ],
          "internalType": "struct ProjectVerification.CodebaseHash",
          "name": "",
          "type": "tuple"
        }
      ],
      "stateMutability": "view",
      "type": "function"
    },
    {
      "inputs": [
        {
          "internalType": "string",
          "name": "_projectName",
          "type": "string"
        }
      ],
      "name": "getLatestDeployment",
      "outputs": [
        {
          "components": [
            {
              "internalType": "string",
              "name": "projectName",
              "type": "string"
            },
            {
              "internalType": "string",
              "name": "version",
              "type": "string"
            },
            {
              "internalType": "string",
              "name": "environment",
              "type": "string"
            },
            {
              "internalType": "string",
              "name": "contractAddress",
              "type": "string"
            },
            {
              "internalType": "string",
              "name": "deploymentTxHash",
              "type": "string"
            },
            {
              "internalType": "uint256",
              "name": "gasUsed",
              "type": "uint256"
            },
            {
              "internalType": "uint256",
              "name": "timestamp",
              "type": "uint256"
            },
            {
              "internalType": "address",
              "name": "deployer",
              "type": "address"
            }
          ],
          "internalType": "struct ProjectVerification.DeploymentRecord",
          "name": "",
          "type": "tuple"
        }
      ],
      "stateMutability": "view",
      "type": "function"
    },
    {
      "inputs": [
        {
          "internalType": "string",
          "name": "_projectName",
          "type": "string"
        }
      ],
      "name": "getLatestSecurityReport",
      "outputs": [
        {
          "components": [
            {
              "internalType": "string",
              "name": "projectName",
              "type": "string"
            },
            {
              "internalType": "string",
              "name": "version",
              "type": "string"
            },
            {
              "internalType": "uint256",
              "name": "vulnerabilitiesFound",
              "type": "uint256"
            },
            {
              "internalType": "string",
              "name": "securityScanHash",
              "type": "string"
            },
            {
              "internalType": "string[]",
              "name": "securityTools",
              "type": "string[]"
            },
            {
              "internalType": "bool",
              "name": "isPassing",
              "type": "bool"
            },
            {
              "internalType": "uint256",
              "name": "timestamp",
              "type": "uint256"
            }
          ],
          "internalType": "struct ProjectVerification.SecurityReport",
          "name": "",
          "type": "tuple"
        }
      ],
      "stateMutability": "view",
      "type": "function"
    },
    {
      "inputs": [
        {
          "internalType": "string",
          "name": "_projectName",
          "type": "string"
        }
      ],
      "name": "getSecurityReportCount",
      "outputs": [
        {
          "internalType": "uint256",
          "name": "",
          "type": "uint256"
        }
      ],
      "stateMutability": "view",
      "type": "function"
    },
    {
      "inputs": [
        {
          "internalType": "string",
          "name": "_projectName",
          "type": "string"
        },
        {
          "internalType": "string",
          "name": "_version",
          "type": "string"
        }
      ],
      "name": "getVerificationStatus",
      "outputs": [
        {
          "internalType": "bool",
          "name": "hasCodebaseHash",
          "type": "bool"
        },
        {
          "internalType": "bool",
          "name": "hasSecurityReport",
          "type": "bool"
        },
        {
          "internalType": "bool",
          "name": "hasDeployment",
          "type": "bool"
        },
        {
          "internalType": "bool",
          "name": "isVerified",
          "type": "bool"
        },
        {
          "internalType": "bool",
          "name": "securityPassing",
          "type": "bool"
        }
      ],
      "stateMutability": "view",
      "type": "function"
    },
    {
      "inputs": [
        {
          "internalType": "string",
          "name": "_projectName",
          "type": "string"
        },
        {
          "internalType": "string",
          "name": "_version",
          "type": "string"
        }
      ],
      "name": "isVersionVerified",
      "outputs": [
        {
          "internalType": "bool",
          "name": "",
          "type": "bool"
        }
      ],
      "stateMutability": "view",
      "type": "function"
    },
    {
      "inputs": [
        {
          "internalType": "string",
          "name": "_projectName",
          "type": "string"
        },
        {
          "internalType": "string",
          "name": "_version",
          "type": "string"
        }
      ],
      "name": "markAsVerified",
      "outputs": [],
      "stateMutability": "nonpayable",
      "type": "function"
    },
    {
      "inputs": [],
      "name": "owner",
      "outputs": [
        {
          "internalType": "address",
          "name": "",
          "type": "address"
        }
      ],
      "stateMutability": "view",
      "type": "function"
    },
    {
      "inputs": [
        {
          "internalType": "string",
          "name": "_projectName",
          "type": "string"
        },
        {
          "internalType": "string",
          "name": "_version",
          "type": "string"
        },
        {
          "internalType": "string",
          "name": "_environment",
          "type": "string"
        },
        {
          "internalType": "string",
          "name": "_contractAddress",
          "type": "string"
        },
        {
          "internalType": "string",
          "name": "_deploymentTxHash",
          "type": "string"
        },
        {
          "internalType": "uint256",
          "name": "_gasUsed",
          "type": "uint256"
        }
      ],
      "name": "recordDeployment",
      "outputs": [],
      "stateMutability": "nonpayable",
      "type": "function"
    },
    {
      "inputs": [
        {
          "internalType": "string",
          "name": "",
          "type": "string"
        },
        {
          "internalType": "uint256",
          "name": "",
          "type": "uint256"
        }
      ],
      "name": "securityReports",
      "outputs": [
        {
          "internalType": "string",
          "name": "projectName",
          "type": "string"
        },
        {
          "internalType": "string",
          "name": "version",
          "type": "string"
        },
        {
          "internalType": "uint256",
          "name": "vulnerabilitiesFound",
          "type": "uint256"
        },
        {
          "internalType": "string",
          "name": "securityScanHash",
          "type": "string"
        },
        {
          "internalType": "bool",
          "name": "isPassing",
          "type": "bool"
        },
        {
          "internalType": "uint256",
          "name": "timestamp",
          "type": "uint256"
        }
      ],
      "stateMutability": "view",
      "type": "function"
    },
    {
      "inputs": [
        {
          "internalType": "string",
          "name": "_projectName",
          "type": "string"
        },
        {
          "internalType": "string",
          "name": "_version",
          "type": "string"
        },
        {
          "internalType": "string",
          "name": "_gitCommitHash",
          "type": "string"
        },
        {
          "internalType": "string",
          "name": "_sourceCodeHash",
          "type": "string"
        },
        {
          "internalType": "string",
          "name": "_dependenciesHash",
          "type": "string"
        },
        {
          "internalType": "string",
          "name": "_configHash",
          "type": "string"
        },
        {
          "internalType": "string",
          "name": "_buildArtifactsHash",
          "type": "string"
        },
        {
          "internalType": "string",
          "name": "_deploymentHash",
          "type": "string"
        }
      ],
      "name": "storeCodebaseHash",
      "outputs": [],
      "stateMutability": "nonpayable",
      "type": "function"
    },
    {
      "inputs": [
        {
          "internalType": "string",
          "name": "_projectName",
          "type": "string"
        },
        {
          "internalType": "string",
          "name": "_version",
          "type": "string"
        },
        {
          "internalType": "uint256",
          "name": "_vulnerabilitiesFound",
          "type": "uint256"
        },
        {
          "internalType": "string",
          "name": "_securityScanHash",
          "type": "string"
        },
        {
          "internalType": "string[]",
          "name": "_securityTools",
          "type": "string[]"
        },
        {
          "internalType": "bool",
          "name": "_isPassing",
          "type": "bool"
        }
      ],
      "name": "storeSecurityReport",
      "outputs": [],
      "stateMutability": "nonpayable",
      "type": "function"
    },
    {
      "inputs": [
        {
          "internalType": "string",
          "name": "",
          "type": "string"
        },
        {
          "internalType": "string",
          "name": "",
          "type": "string"
        }
      ],
      "name": "verifiedVersions",
      "outputs": [
        {
          "internalType": "bool",
          "name": "",
          "type": "bool"
        }
      ],
      "stateMutability": "view",
      "type": "function"
    },
    {
      "inputs": [
        {
          "internalType": "string",
          "name": "_projectName",
          "type": "string"
        },
        {
          "internalType": "string",
          "name": "_version",
          "type": "string"
        },
        {
          "internalType": "string",
          "name": "_sourceCodeHash",
          "type": "string"
        },
        {
          "internalType": "string",
          "name": "_dependenciesHash",
          "type": "string"
        }
      ],
      "name": "verifyHashIntegrity",
      "outputs": [
        {
          "internalType": "bool",
          "name": "",
          "type": "bool"
        }
      ],
      "stateMutability": "view",
      "type": "function"
    }
  ],
  "bytecode": "0x6080346200013a57600080546001600160a01b0319163317815560608201916001600160401b03908184118185101762000126576040938452602981526020917f50726f6a656374566572696669636174696f6e20636f6e74726163742064657083830152683637bcb2b210313c9d60b91b85830152845191828481019463319af33360e01b8652876024830152825192836064840152875b8481106200010e575050508082876084601f9560a39501015233604483015283199384910116810103606481018552011682019082821090821117620000fa5784525182916a636f6e736f6c652e6c6f675afa50516131799081620001408239f35b634e487b7160e01b84526041600452602484fd5b81810183015187820160840152869350820162000098565b634e487b7160e01b83526041600452602483fd5b600080fdfe6080604052600436101561001257600080fd5b60003560e01c80631ac4b7c1146129f85780633f03aefc146100e25780633f9768d0146128765780634533ecdc146127e557806347603d65146125e057806353723d16146124ba578063727d4e87146123df5780638da5cb5b146123b657806396d62486146121e2578063a0f297b014611b01578063aaa4becd14611036578063ac4a00dc14610fed578063bc934e7814610f91578063bd242be414610cbd578063d72430121461055e578063da8aadcb14610385578063e2f21af8146101315763f6662661146100e257600080fd5b3461012c57602060ff610120826101106100fb36612b0b565b92908160405193828580945193849201612b51565b8101600481520301902090612b74565b54166040519015158152f35b600080fd5b3461012c5760208060031936011261012c576004356001600160401b03811161012c57610162903690600401612ab5565b9060405161016f81612a5c565b6060808252808383015280604083015280808301528060808301528060a08301528060c08301528060e0830152610100916000838201526101206000818301526000610140809301526040518651908681818a01936101cf818387612b51565b81016001815203019020541561034057856102129160405182818b516101f6818387612b51565b8101600181520301902098604051938492839251928391612b51565b8101600181520301902054600019810190811161032a5761023961023f9161030698612d0e565b50612d87565b906040519686889788526102f26102de6102ca6102b68751996102a38d61028e6102766101609e8f8b850152610180840190612b9a565b988c015198601f19998a848303016040850152612b9a565b9060408c015190848a82850301910152612b9a565b908901518d8203870160808f0152612b9a565b60808801518c8203860160a08e0152612b9a565b60a0870151848c83030160c08d0152612b9a565b60c0860151838b83030160e08c0152612b9a565b9060e08501519089830301888a0152612b9a565b94820151868201528101516001600160a01b03168286015201511515908301520390f35b634e487b7160e01b600052601160045260246000fd5b60405162461bcd60e51b815260048101879052601b60248201527f4e6f2068617368657320666f756e6420666f722070726f6a65637400000000006044820152606490fd5b3461012c5760208060031936011261012c576004356001600160401b03811161012c576103b6903690600401612ab5565b906040516103c381612a78565b600060e0606092838152838582015283604082015283808201528360808201528260a08201528260c08201520152604051835190838181870193610408818387612b51565b810160038152030190205415610522578261044b916040518281885161042f818387612b51565b8101600381520301902095604051938492839251928391612b51565b8101600381520301902054600019810190811161032a57610472610478916104f895612bf0565b50612f5f565b906040519383859485526104e38451936104d06104bd6104a56101009788878c01526101208b0190612b9a565b9488015194601f1995868b83030160408c0152612b9a565b6040880151858a830301848b0152612b9a565b9086015183888303016080890152612b9a565b906080850151908683030160a0870152612b9a565b9160a081015160c085015260c081015160e085015260e060018060a01b0391015116908301520390f35b60405162461bcd60e51b8152600481018490526014602482015273139bc819195c1b1bde5b595b9d1cc8199bdd5b9960621b6044820152606490fd5b3461012c5760c036600319011261012c576004356001600160401b03811161012c5761058e903690600401612ab5565b6024356001600160401b03811161012c576105ad903690600401612ab5565b6044356001600160401b03811161012c576105cc903690600401612ab5565b6064356001600160401b03811161012c576105eb903690600401612ab5565b926084356001600160401b03811161012c5761060b903690600401612ab5565b6040519061061882612a78565b828252846020830152836040830152856060830152608082015260a43560a08201524260c08201523360e0820152604051602081845161065b8183858901612b51565b810160038152030190208054600160401b8110156109d25761068291600182018155612bf0565b610ca75781518051906001600160401b0382116109d25781906106a58454612c22565b601f8111610c75575b50602090601f8311600114610c0957600092610bfe575b50508160011b916000199060031b1c19161781555b60208201518051906001600160401b0382116109d25781906106ff6001850154612c22565b601f8111610bc9575b50602090601f8311600114610b5757600092610b4c575b50508160011b916000199060031b1c19161760018201555b60408201518051906001600160401b0382116109d257819061075c6002850154612c22565b601f8111610b17575b50602090601f8311600114610aa557600092610a9a575b50508160011b916000199060031b1c19161760028201555b60608201518051906001600160401b0382116109d25781906107b96003850154612c22565b601f8111610a65575b50602090601f83116001146109f3576000926109e8575b50508160011b916000199060031b1c19161760038201555b608082015180516001600160401b0381116109d25760048301916108158354612c22565b601f8111610995575b50602090601f83116001146108f9579460076108e9956108c695856108c0966108db9b967f1e5275efbc325a8e127bfbdb402c99e6171f0dc9eeae95d827b5a95f39c893b89d9b6000926108ee575b50508160011b916000199060031b1c19161790555b60a0830151600582015560c08301516006820155019060e060018060a01b03910151166bffffffffffffffffffffffff60a01b825416179055612d58565b95612d58565b95604051938493604085526040850190612b9a565b908382036020850152612b9a565b0390a3005b015190508f8061086d565b90601f198316918460005260206000209260005b81811061097d5750956108c6956001866108db9b967f1e5275efbc325a8e127bfbdb402c99e6171f0dc9eeae95d827b5a95f39c893b89d9b966007966108c09a6108e99d10610964575b505050811b019055610882565b015160001960f88460031b161c191690558f8080610957565b9293602060018192878601518155019501930161090d565b6109c290846000526020600020601f850160051c810191602086106109c8575b601f0160051c0190612d41565b8961081e565b90915081906109b5565b634e487b7160e01b600052604160045260246000fd5b0151905088806107d9565b9250600384016000526020600020906000935b601f1984168510610a4a576001945083601f19811610610a31575b505050811b0160038201556107f1565b015160001960f88460031b161c19169055888080610a21565b81810151835560209485019460019093019290910190610a06565b610a9490600386016000526020600020601f850160051c810191602086106109c857601f0160051c0190612d41565b896107c2565b01519050888061077c565b9250600284016000526020600020906000935b601f1984168510610afc576001945083601f19811610610ae3575b505050811b016002820155610794565b015160001960f88460031b161c19169055888080610ad3565b81810151835560209485019460019093019290910190610ab8565b610b4690600286016000526020600020601f850160051c810191602086106109c857601f0160051c0190612d41565b89610765565b01519050888061071f565b9250600184016000526020600020906000935b601f1984168510610bae576001945083601f19811610610b95575b505050811b016001820155610737565b015160001960f88460031b161c19169055888080610b85565b81810151835560209485019460019093019290910190610b6a565b610bf890600186016000526020600020601f850160051c810191602086106109c857601f0160051c0190612d41565b89610708565b0151905088806106c5565b9250836000526020600020906000935b601f1984168510610c5a576001945083601f19811610610c41575b505050811b0181556106da565b015160001960f88460031b161c19169055888080610c34565b81810151835560209485019460019093019290910190610c19565b610ca190856000526020600020601f850160051c810191602086106109c857601f0160051c0190612d41565b896106ae565b634e487b7160e01b600052600060045260246000fd5b3461012c57610ccb36612b0b565b60009060405190835191602080860193610ce6818487612b51565b8201918181600194858152030190208054610d0081612d2a565b91610d0e6040519384612a94565b8183526000908152838120858585015b86858510610f75575050925050506000905b610f29575b505060009260009460405183818a51610d4f818387612b51565b810160028152030190208054610d6481612d2a565b91610d726040519384612a94565b8183526000908152858120878785015b88858510610f0d575050925050506000905b610eaf575b505060009360405184818b51610db0818388612b51565b810160038152030190208054610dc581612d2a565b91610dd36040519384612a94565b8183526000908152868120848885015b89858510610e93575050925050506000905b610e44575b50505060ff9161011084610e1c9360a09b604051938492839251928391612b51565b5416926040519515158652151590850152151560408401521515606083015215156080820152f35b8151811015610e8e5785610e588284613009565b51015186815191012085518787012014610e7e5790610e778392612d78565b9091610df5565b5090945082905061011084610dfa565b610dfa565b600891610e9f85612f5f565b8152019201920191908590610de3565b8151811015610f085784610ec38284613009565b51015185815191012084518686012014610ee95790610ee28692612d78565b9091610d94565b60a0929750610efb9196508596613009565b5101511515948880610d99565b610d99565b600791610f1985612e80565b8152019201920191908890610d82565b8151811015610f705782610f3d8284613009565b51015183815191012085518487012014610f635790610f5c8492612d78565b9091610d30565b5050935080938680610d35565b610d35565b600a91610f8185612d87565b8152019201920191908690610d1e565b3461012c57602036600319011261012c576004356001600160401b03811161012c57610fda6020610fc781933690600401612ab5565b8160405193828580945193849201612b51565b8101600181520301902054604051908152f35b3461012c57602036600319011261012c576004356001600160401b03811161012c576110236020610fc781933690600401612ab5565b8101600281520301902054604051908152f35b3461012c5761010036600319011261012c576004356001600160401b03811161012c57611067903690600401612ab5565b6024356001600160401b03811161012c57611086903690600401612ab5565b6044356001600160401b03811161012c576110a5903690600401612ab5565b916064356001600160401b03811161012c576110c5903690600401612ab5565b6084356001600160401b03811161012c576110e4903690600401612ab5565b60a4356001600160401b03811161012c57611103903690600401612ab5565b60c4356001600160401b03811161012c57611122903690600401612ab5565b9060e4356001600160401b03811161012c57611142903690600401612ab5565b926040519461115086612a5c565b8686528760208701528860408701526060860152608085015260a084015260c083015260e08201524261010082015233610120820152600061014082015260405160208184516111a38183858901612b51565b810160018152030190208054600160401b8110156109d2576111ca91600182018155612d0e565b610ca75781518051906001600160401b0382116109d25781906111ed8454612c22565b601f8111611acf575b50602090601f8311600114611a6357600092611a58575b50508160011b916000199060031b1c19161781555b60208201518051906001600160401b0382116109d25781906112476001850154612c22565b601f8111611a23575b50602090601f83116001146119b1576000926119a6575b50508160011b916000199060031b1c19161760018201555b60408201518051906001600160401b0382116109d25781906112a46002850154612c22565b601f8111611971575b50602090601f83116001146118ff576000926118f4575b50508160011b916000199060031b1c19161760028201555b60608201518051906001600160401b0382116109d25781906113016003850154612c22565b601f81116118bf575b50602090601f831160011461184d57600092611842575b50508160011b916000199060031b1c19161760038201555b60808201518051906001600160401b0382116109d257819061135e6004850154612c22565b601f811161180d575b50602090601f831160011461179b57600092611790575b50508160011b916000199060031b1c19161760048201555b60a08201518051906001600160401b0382116109d25781906113bb6005850154612c22565b601f811161175b575b50602090601f83116001146116e9576000926116de575b50508160011b916000199060031b1c19161760058201555b60c08201518051906001600160401b0382116109d25781906114186006850154612c22565b601f81116116a9575b50602090601f83116001146116375760009261162c575b50508160011b916000199060031b1c19161760068201555b60e08201518051906001600160401b0382116109d2576114736007840154612c22565b601f81116115f7575b50602090601f83116001146115585793600961152d9484611527957f8fa9880721e71f162c3ea8018533c95dad44d313927e3a0f4c29c09dd5d4a6ab99956115429960009261154d575b50508160011b916000199060031b1c19161760078201555b6101008301516008820155019060018060a01b036101208201511682549161014060ff60a01b910151151560a01b16916affffffffffffffffffffff60a81b1617179055612d58565b93612d58565b93604051918291604083526040830190612b9a565b3360208301520390a3005b015190508c806114c6565b906007840160005260206000209160005b601f19851681106115df575061152d946001857f8fa9880721e71f162c3ea8018533c95dad44d313927e3a0f4c29c09dd5d4a6ab9995611542999560099561152799601f198116106115c6575b505050811b0160078201556114de565b015160001960f88460031b161c191690558c80806115b6565b91926020600181928685015181550194019201611569565b61162690600785016000526020600020601f850160051c810191602086106109c857601f0160051c0190612d41565b8761147c565b015190508780611438565b9250600684016000526020600020906000935b601f198416851061168e576001945083601f19811610611675575b505050811b016006820155611450565b015160001960f88460031b161c19169055878080611665565b8181015183556020948501946001909301929091019061164a565b6116d890600686016000526020600020601f850160051c810191602086106109c857601f0160051c0190612d41565b88611421565b0151905087806113db565b9250600584016000526020600020906000935b601f1984168510611740576001945083601f19811610611727575b505050811b0160058201556113f3565b015160001960f88460031b161c19169055878080611717565b818101518355602094850194600190930192909101906116fc565b61178a90600586016000526020600020601f850160051c810191602086106109c857601f0160051c0190612d41565b886113c4565b01519050878061137e565b9250600484016000526020600020906000935b601f19841685106117f2576001945083601f198116106117d9575b505050811b016004820155611396565b015160001960f88460031b161c191690558780806117c9565b818101518355602094850194600190930192909101906117ae565b61183c90600486016000526020600020601f850160051c810191602086106109c857601f0160051c0190612d41565b88611367565b015190508780611321565b9250600384016000526020600020906000935b601f19841685106118a4576001945083601f1981161061188b575b505050811b016003820155611339565b015160001960f88460031b161c1916905587808061187b565b81810151835560209485019460019093019290910190611860565b6118ee90600386016000526020600020601f850160051c810191602086106109c857601f0160051c0190612d41565b8861130a565b0151905087806112c4565b9250600284016000526020600020906000935b601f1984168510611956576001945083601f1981161061193d575b505050811b0160028201556112dc565b015160001960f88460031b161c1916905587808061192d565b81810151835560209485019460019093019290910190611912565b6119a090600286016000526020600020601f850160051c810191602086106109c857601f0160051c0190612d41565b886112ad565b015190508780611267565b9250600184016000526020600020906000935b601f1984168510611a08576001945083601f198116106119ef575b505050811b01600182015561127f565b015160001960f88460031b161c191690558780806119df565b818101518355602094850194600190930192909101906119c4565b611a5290600186016000526020600020601f850160051c810191602086106109c857601f0160051c0190612d41565b88611250565b01519050878061120d565b9250836000526020600020906000935b601f1984168510611ab4576001945083601f19811610611a9b575b505050811b018155611222565b015160001960f88460031b161c19169055878080611a8e565b81810151835560209485019460019093019290910190611a73565b611afb90856000526020600020601f850160051c810191602086106109c857601f0160051c0190612d41565b886111f6565b3461012c5760c036600319011261012c576004356001600160401b03811161012c57611b31903690600401612ab5565b6024356001600160401b03811161012c57611b50903690600401612ab5565b6064356001600160401b03811161012c57611b6f903690600401612ab5565b91608435926001600160401b03841161012c573660238501121561012c578360040135611b9b81612d2a565b94611ba96040519687612a94565b8186526024602087019260051b8201019036821161012c5760248101925b8284106121b3575050505060a43593841515850361012c5760405191611bec83612a41565b83835284602084015260443560408401526060830152608082015283151560a08201524260c08201526040516020818451611c2a8183858901612b51565b810160028152030190208054600160401b8110156109d257611c5191600182018155612cf2565b919091610ca75780518051906001600160401b0382116109d2578190611c778554612c22565b601f8111612181575b50602090601f83116001146121155760009261210a575b50508160011b916000199060031b1c19161782555b60208101518051906001600160401b0382116109d2578190611cd16001860154612c22565b601f81116120d5575b50602090601f831160011461206357600092612058575b50508160011b916000199060031b1c19161760018301555b6040810151600283015560608101518051906001600160401b0382116109d2578190611d386003860154612c22565b601f8111612023575b50602090601f8311600114611fb157600092611fa6575b50508160011b916000199060031b1c19161760038301555b6080810151805190600160401b82116109d2576004840154826004860155808310611f2e575b5060200190600484016000526020600020916000905b828210611e195788887f7bc1a8b0fa98beec7c6bbdeb408855861f623a0a91644e4612fd34fb20407c206040611e066115278c8c600660c08e6005840160a0820151151560ff801983541691161790550151910155612d58565b93815190151581526044356020820152a3005b80518051906001600160401b0382116109d257611e368654612c22565b601f8111611efc575b50602090601f8311600114611e8c579282600194936020938695600092611e81575b5050600019600383901b1c191690841b1787555b01940191019092611dac565b015190508e80611e61565b908660005260206000209160005b601f1985168110611ee4575083602093600196938796938794601f19811610611ecb575b505050811b018755611e75565b015160001960f88460031b161c191690558e8080611ebe565b91926020600181928685015181550194019201611e9a565b611f2890876000526020600020601f850160051c810191602086106109c857601f0160051c0190612d41565b8b611e3f565b600485016000526020600020908382015b8183018110611f4f575050611d96565b80611f5c60019254612c22565b80611f69575b5001611f3f565b601f81118314611f7f5750600081555b8b611f62565b600090828252611f9d601f60208420920160051c8201858301612d41565b81835555611f79565b015190508780611d58565b9250600385016000526020600020906000935b601f1984168510612008576001945083601f19811610611fef575b505050811b016003830155611d70565b015160001960f88460031b161c19169055878080611fdf565b81810151835560209485019460019093019290910190611fc4565b61205290600387016000526020600020601f850160051c810191602086106109c857601f0160051c0190612d41565b88611d41565b015190508780611cf1565b9250600185016000526020600020906000935b601f19841685106120ba576001945083601f198116106120a1575b505050811b016001830155611d09565b015160001960f88460031b161c19169055878080612091565b81810151835560209485019460019093019290910190612076565b61210490600187016000526020600020601f850160051c810191602086106109c857601f0160051c0190612d41565b88611cda565b015190508780611c97565b9250846000526020600020906000935b601f1984168510612166576001945083601f1981161061214d575b505050811b018255611cac565b015160001960f88460031b161c19169055878080612140565b81810151835560209485019460019093019290910190612125565b6121ad90866000526020600020601f850160051c810191602086106109c857601f0160051c0190612d41565b88611c80565b83356001600160401b03811161012c576020916121d7839260243691870101612ab5565b815201930192611bc7565b3461012c5760206121f56100fb36612bbf565b8101600181520301902090815481101561012c5761221291612d0e565b50604051806122218184612c5c565b0361222c9082612a94565b604051918261223e8160018401612c5c565b036122499084612a94565b6040518061225a8160028501612c5c565b036122659082612a94565b604051806122768160038601612c5c565b036122819082612a94565b604051806122928160048701612c5c565b0361229d9082612a94565b604051806122ae8160058801612c5c565b036122b99082612a94565b60405191826122cb8160068901612c5c565b036122d69084612a94565b60405193846122e88160078a01612c5c565b036122f39086612a94565b6008870154966009015495604051998a99610160808c528b0161231591612b9a565b8a810360208c015261232691612b9a565b89810360408b015261233791612b9a565b88810360608a015261234891612b9a565b878103608089015261235991612b9a565b86810360a088015261236a91612b9a565b85810360c087015261237b91612b9a565b84810360e086015261238c91612b9a565b91610100840152600160a01b60019003811661012084015260a01c60ff1615156101408301520390f35b3461012c57600036600319011261012c576000546040516001600160a01b039091168152602090f35b3461012c5760206123f26100fb36612bbf565b81016002815203019020805482101561012c576124889161241291612cf2565b506040519061242c826124258184612c5c565b0383612a94565b604051612447816124408160018601612c5c565b0382612a94565b6124a96002830154604051612463816124408160038901612c5c565b612496600660ff6005880154169601549460405198899860c08a5260c08a0190612b9a565b9088820360208a0152612b9a565b9160408701528582036060870152612b9a565b911515608084015260a08301520390f35b3461012c5760206124cd6100fb36612bbf565b81016003815203019020805482101561012c57612594916124ed91612bf0565b5060405190612500826124258184612c5c565b604051612514816124408160018601612c5c565b60405191612530836125298160028501612c5c565b0384612a94565b6125cc604051612547816124408160038701612c5c565b6125be6040519161255f836125298160048901612c5c565b6125b06005860154976125a2600688015497600760018060a01b0391015416986040519c8d9c8d610100908181520190612b9a565b8c810360208e015290612b9a565b908a820360408c0152612b9a565b9088820360608a0152612b9a565b908682036080880152612b9a565b9260a085015260c084015260e08301520390f35b3461012c5760208060031936011261012c576004356001600160401b03811161012c57612611903690600401612ab5565b906040519161261f83612a41565b600060c0606094858152858582015282604082015285808201528560808201528260a0820152015260405181519083818185019361265e818387612b51565b8101600281520301902054156127a057826126a19160405182818651612685818387612b51565b8101600281520301902093604051938492839251928391612b51565b810160028152030190205490600019820191821161032a576126c784926126cd92612cf2565b50612e80565b91604051918183526127266126ee855160e085870152610100860190612b9a565b9161270a8487015193601f199485888303016040890152612b9a565b9060408701518187015286015183868303016080870152612b9a565b608085015192828583030160a086015283519182815281810182808560051b8401019601946000925b8584106127725788808960c08d60a0810151151582850152015160e08301520390f35b90919293949596858061278f838686600196030188528b51612b9a565b99019401940192959493919061274f565b60405162461bcd60e51b815260048101849052601960248201527f4e6f207365637572697479207265706f72747320666f756e64000000000000006044820152606490fd5b3461012c57608036600319011261012c576001600160401b0360043581811161012c57612816903690600401612ab5565b9060243581811161012c5761282f903690600401612ab5565b9160443582811161012c57612848903690600401612ab5565b60643592831161012c5760209361286661286c943690600401612ab5565b9261301d565b6040519015158152f35b3461012c5761288436612b0b565b6000549091906001600160a01b031633036129a957604051918151926128c76020918281818701976128b781838b612b51565b8101600481520301902083612b74565b6128eb8260019687938460ff19825416179055604051809381928951928391612b51565b8101848152030190206000825b612938575b50505061292e6115277ffae75ed64d8262b31591c1c45e412b50052807288baba4194275ea90cc8053339394612d58565b93604051908152a3005b81548110156129a457808361296461295361297a9486612d0e565b506124406040518094819301612c5c565b8581519101208651868801201461298057612d78565b826128f8565b600961298c8285612d0e565b5001805460ff60a01b1916600160a01b179055612d78565b6128fd565b60405162461bcd60e51b815260206004820152602160248201527f4f6e6c79206f776e65722063616e2063616c6c20746869732066756e6374696f6044820152603760f91b6064820152608490fd5b3461012c57602036600319011261012c576004356001600160401b03811161012c57612a2e6020610fc781933690600401612ab5565b8101600381520301902054604051908152f35b60e081019081106001600160401b038211176109d257604052565b61016081019081106001600160401b038211176109d257604052565b61010081019081106001600160401b038211176109d257604052565b90601f801991011681019081106001600160401b038211176109d257604052565b81601f8201121561012c578035906001600160401b0382116109d25760405192612ae9601f8401601f191660200185612a94565b8284526020838301011161012c57816000926020809301838601378301015290565b90604060031983011261012c576001600160401b0360043581811161012c5783612b3791600401612ab5565b9260243591821161012c57612b4e91600401612ab5565b90565b60005b838110612b645750506000910152565b8181015183820152602001612b54565b602090612b8e928260405194838680955193849201612b51565b82019081520301902090565b90602091612bb381518092818552858086019101612b51565b601f01601f1916010190565b604060031982011261012c57600435906001600160401b03821161012c57612be991600401612ab5565b9060243590565b8054821015612c0c5760005260206000209060031b0190600090565b634e487b7160e01b600052603260045260246000fd5b90600182811c92168015612c52575b6020831014612c3c57565b634e487b7160e01b600052602260045260246000fd5b91607f1691612c31565b9060009291805491612c6d83612c22565b918282526001938481169081600014612ccf5750600114612c8f575b50505050565b90919394506000526020928360002092846000945b838610612cbb575050505001019038808080612c89565b805485870183015294019385908201612ca4565b9294505050602093945060ff191683830152151560051b01019038808080612c89565b8054821015612c0c576000526007602060002091020190600090565b8054821015612c0c57600052600a602060002091020190600090565b6001600160401b0381116109d25760051b60200190565b818110612d4c575050565b60008155600101612d41565b612d7090602060405192828480945193849201612b51565b810103902090565b600019811461032a5760010190565b9060409161014060ff6009855193612d9e85612a5c565b84968051612db0816124408186612c5c565b86528051612dc5816124408160018701612c5c565b60208701528051612ddd816124408160028701612c5c565b818701528051612df4816124408160038701612c5c565b60608701528051612e0c816124408160048701612c5c565b60808701528051612e24816124408160058701612c5c565b60a08701528051612e3c816124408160068701612c5c565b60c087015251612e53816124408160078601612c5c565b60e0860152600881015461010086015201546001600160a01b03811661012085015260a01c161515910152565b90604091825190612e9082612a41565b81938051612ea2816124408186612c5c565b83528051600190612eb98161244081858801612c5c565b602090818601526002840154838601528251612edc816124408160038901612c5c565b606086015260048401805491612ef183612d2a565b94612efe81519687612a94565b8386526000928352818320908287015b858510612f3d575050505050505060c091600691608085015260ff600582015416151560a08501520154910152565b868481928451612f5181612440818a612c5c565b815201930194019391612f0e565b9060409160e0835191612f7183612a78565b82948051612f83816124408186612c5c565b84528051612f98816124408160018701612c5c565b60208501528051612fb0816124408160028701612c5c565b818501528051612fc7816124408160038701612c5c565b606085015251612fde816124408160048601612c5c565b6080840152600581015460a0840152600681015460c0840152600701546001600160a01b0316910152565b8051821015612c0c5760209160051b010190565b90919260405193825161303581876020809701612b51565b85019483816001978881520301902093845461305081612d2a565b9561305e6040519788612a94565b8187526000908152858120888789015b88858510613127575050925050506000905b613091575b50505050505050600090565b855181101561312257846130a58288613009565b510151858151910120825186840120146130c8576130c290612d78565b86613080565b92939495505060606130da8387613009565b510151848151910120908481519101201493846130f9575b5050505090565b6080929394509061310991613009565b51015182815191012091815191012014388080806130f2565b613085565b600a9161313385612d87565b815201920192019190899061306e56fea264697066735822122040456d2f9f7fa8bd042028513ca7daca183053ae3e0f57252db26690ecfa30a664736f6c63430008140033",
  "linkReferences": {},
  "deployedLinkReferences": {}
}