{
  "_format": "hh-sol-artifact-1",
  "contractName": "Portfolio",
  "sourceName": "contracts/Portfolio.sol",
  "abi": [
    {
      "inputs": [
        {
          "internalType": "string",
          "name": "_name",
          "type": "string"
        },
        {
          "internalType": "string",
          "name": "_title",
          "type": "string"
        },
        {
          "internalType": "string",
          "name": "_summary",
          "type": "string"
        },
        {
          "internalType": "string",
          "name": "_phone",
          "type": "string"
        },
        {
          "internalType": "string",
          "name": "_email",
          "type": "string"
        },
        {
          "internalType": "string",
          "name": "_linkedin",
          "type": "string"
        },
        {
          "internalType": "string",
          "name": "_github",
          "type": "string"
        }
      ],
      "stateMutability": "nonpayable",
      "type": "constructor"
    },
    {
      "anonymous": false,
      "inputs": [
        {
          "indexed": false,
          "internalType": "string",
          "name": "key",
          "type": "string"
        },
        {
          "indexed": false,
          "internalType": "uint256",
          "name": "index",
          "type": "uint256"
        }
      ],
      "name": "DataDeleted",
      "type": "event"
    },
    {
      "anonymous": false,
      "inputs": [
        {
          "indexed": false,
          "internalType": "string",
          "name": "key",
          "type": "string"
        }
      ],
      "name": "DataUpdated",
      "type": "event"
    },
    {
      "inputs": [
        {
          "internalType": "string",
          "name": "_title",
          "type": "string"
        },
        {
          "internalType": "string",
          "name": "_description",
          "type": "string"
        },
        {
          "internalType": "string",
          "name": "_iconName",
          "type": "string"
        }
      ],
      "name": "addAcademicFocus",
      "outputs": [],
      "stateMutability": "nonpayable",
      "type": "function"
    },
    {
      "inputs": [
        {
          "internalType": "string",
          "name": "_title",
          "type": "string"
        },
        {
          "internalType": "string",
          "name": "_date",
          "type": "string"
        },
        {
          "internalType": "string[]",
          "name": "_description",
          "type": "string[]"
        }
      ],
      "name": "addAchievement",
      "outputs": [],
      "stateMutability": "nonpayable",
      "type": "function"
    },
    {
      "inputs": [
        {
          "internalType": "string",
          "name": "_name",
          "type": "string"
        },
        {
          "internalType": "string",
          "name": "_date",
          "type": "string"
        },
        {
          "internalType": "string",
          "name": "_issuer",
          "type": "string"
        },
        {
          "internalType": "string",
          "name": "_link",
          "type": "string"
        },
        {
          "internalType": "string[]",
          "name": "_description",
          "type": "string[]"
        }
      ],
      "name": "addCertification",
      "outputs": [],
      "stateMutability": "nonpayable",
      "type": "function"
    },
    {
      "inputs": [
        {
          "internalType": "string",
          "name": "_degree",
          "type": "string"
        },
        {
          "internalType": "string",
          "name": "_university",
          "type": "string"
        },
        {
          "internalType": "string",
          "name": "_dates",
          "type": "string"
        },
        {
          "internalType": "string",
          "name": "_gpa",
          "type": "string"
        }
      ],
      "name": "addEducation",
      "outputs": [],
      "stateMutability": "nonpayable",
      "type": "function"
    },
    {
      "inputs": [
        {
          "internalType": "string",
          "name": "_title",
          "type": "string"
        },
        {
          "internalType": "string",
          "name": "_company",
          "type": "string"
        },
        {
          "internalType": "string",
          "name": "_dates",
          "type": "string"
        },
        {
          "internalType": "string[]",
          "name": "_description",
          "type": "string[]"
        }
      ],
      "name": "addExperience",
      "outputs": [],
      "stateMutability": "nonpayable",
      "type": "function"
    },
    {
      "inputs": [
        {
          "internalType": "string",
          "name": "_title",
          "type": "string"
        },
        {
          "internalType": "string[]",
          "name": "_description",
          "type": "string[]"
        },
        {
          "internalType": "string",
          "name": "_repo",
          "type": "string"
        },
        {
          "internalType": "string",
          "name": "_caseStudy",
          "type": "string"
        }
      ],
      "name": "addProject",
      "outputs": [],
      "stateMutability": "nonpayable",
      "type": "function"
    },
    {
      "inputs": [
        {
          "internalType": "string",
          "name": "_title",
          "type": "string"
        },
        {
          "internalType": "string",
          "name": "_date",
          "type": "string"
        },
        {
          "internalType": "string[]",
          "name": "_description",
          "type": "string[]"
        },
        {
          "internalType": "string",
          "name": "_link",
          "type": "string"
        }
      ],
      "name": "addResearch",
      "outputs": [],
      "stateMutability": "nonpayable",
      "type": "function"
    },
    {
      "inputs": [
        {
          "internalType": "string",
          "name": "_category",
          "type": "string"
        },
        {
          "internalType": "string[]",
          "name": "_skills",
          "type": "string[]"
        }
      ],
      "name": "addSkillCategory",
      "outputs": [],
      "stateMutability": "nonpayable",
      "type": "function"
    },
    {
      "inputs": [
        {
          "internalType": "string",
          "name": "",
          "type": "string"
        }
      ],
      "name": "contact",
      "outputs": [
        {
          "internalType": "string",
          "name": "",
          "type": "string"
        }
      ],
      "stateMutability": "view",
      "type": "function"
    },
    {
      "inputs": [
        {
          "internalType": "uint256",
          "name": "_index",
          "type": "uint256"
        }
      ],
      "name": "deleteProject",
      "outputs": [],
      "stateMutability": "nonpayable",
      "type": "function"
    },
    {
      "inputs": [],
      "name": "getAcademicFocusAreas",
      "outputs": [
        {
          "components": [
            {
              "internalType": "string",
              "name": "title",
              "type": "string"
            },
            {
              "internalType": "string",
              "name": "description",
              "type": "string"
            },
            {
              "internalType": "string",
              "name": "iconName",
              "type": "string"
            }
          ],
          "internalType": "struct Portfolio.AcademicFocus[]",
          "name": "",
          "type": "tuple[]"
        }
      ],
      "stateMutability": "view",
      "type": "function"
    },
    {
      "inputs": [],
      "name": "getAchievements",
      "outputs": [
        {
          "components": [
            {
              "internalType": "string",
              "name": "title",
              "type": "string"
            },
            {
              "internalType": "string",
              "name": "date",
              "type": "string"
            },
            {
              "internalType": "string[]",
              "name": "description",
              "type": "string[]"
            }
          ],
          "internalType": "struct Portfolio.Achievement[]",
          "name": "",
          "type": "tuple[]"
        }
      ],
      "stateMutability": "view",
      "type": "function"
    },
    {
      "inputs": [],
      "name": "getCertifications",
      "outputs": [
        {
          "components": [
            {
              "internalType": "string",
              "name": "name",
              "type": "string"
            },
            {
              "internalType": "string",
              "name": "date",
              "type": "string"
            },
            {
              "internalType": "string",
              "name": "issuer",
              "type": "string"
            },
            {
              "internalType": "string",
              "name": "link",
              "type": "string"
            },
            {
              "internalType": "string[]",
              "name": "description",
              "type": "string[]"
            }
          ],
          "internalType": "struct Portfolio.Certification[]",
          "name": "",
          "type": "tuple[]"
        }
      ],
      "stateMutability": "view",
      "type": "function"
    },
    {
      "inputs": [],
      "name": "getContact",
      "outputs": [
        {
          "internalType": "string",
          "name": "phone",
          "type": "string"
        },
        {
          "internalType": "string",
          "name": "email",
          "type": "string"
        },
        {
          "internalType": "string",
          "name": "linkedin",
          "type": "string"
        },
        {
          "internalType": "string",
          "name": "github",
          "type": "string"
        }
      ],
      "stateMutability": "view",
      "type": "function"
    },
    {
      "inputs": [],
      "name": "getDataHash",
      "outputs": [
        {
          "internalType": "bytes32",
          "name": "",
          "type": "bytes32"
        }
      ],
      "stateMutability": "view",
      "type": "function"
    },
    {
      "inputs": [],
      "name": "getEducationHistory",
      "outputs": [
        {
          "components": [
            {
              "internalType": "string",
              "name": "degree",
              "type": "string"
            },
            {
              "internalType": "string",
              "name": "university",
              "type": "string"
            },
            {
              "internalType": "string",
              "name": "dates",
              "type": "string"
            },
            {
              "internalType": "string",
              "name": "gpa",
              "type": "string"
            }
          ],
          "internalType": "struct Portfolio.Education[]",
          "name": "",
          "type": "tuple[]"
        }
      ],
      "stateMutability": "view",
      "type": "function"
    },
    {
      "inputs": [],
      "name": "getExperiences",
      "outputs": [
        {
          "components": [
            {
              "internalType": "string",
              "name": "title",
              "type": "string"
            },
            {
              "internalType": "string",
              "name": "company",
              "type": "string"
            },
            {
              "internalType": "string",
              "name": "dates",
              "type": "string"
            },
            {
              "internalType": "string[]",
              "name": "description",
              "type": "string[]"
            }
          ],
          "internalType": "struct Portfolio.Experience[]",
          "name": "",
          "type": "tuple[]"
        }
      ],
      "stateMutability": "view",
      "type": "function"
    },
    {
      "inputs": [],
      "name": "getProjects",
      "outputs": [
        {
          "components": [
            {
              "internalType": "string",
              "name": "title",
              "type": "string"
            },
            {
              "internalType": "string[]",
              "name": "description",
              "type": "string[]"
            },
            {
              "internalType": "string",
              "name": "repo",
              "type": "string"
            },
            {
              "internalType": "string",
              "name": "caseStudy",
              "type": "string"
            }
          ],
          "internalType": "struct Portfolio.Project[]",
          "name": "",
          "type": "tuple[]"
        }
      ],
      "stateMutability": "view",
      "type": "function"
    },
    {
      "inputs": [],
      "name": "getResearchPapers",
      "outputs": [
        {
          "components": [
            {
              "internalType": "string",
              "name": "title",
              "type": "string"
            },
            {
              "internalType": "string",
              "name": "date",
              "type": "string"
            },
            {
              "internalType": "string[]",
              "name": "description",
              "type": "string[]"
            },
            {
              "internalType": "string",
              "name": "link",
              "type": "string"
            }
          ],
          "internalType": "struct Portfolio.Research[]",
          "name": "",
          "type": "tuple[]"
        }
      ],
      "stateMutability": "view",
      "type": "function"
    },
    {
      "inputs": [
        {
          "internalType": "string",
          "name": "_category",
          "type": "string"
        }
      ],
      "name": "getSkills",
      "outputs": [
        {
          "internalType": "string[]",
          "name": "",
          "type": "string[]"
        }
      ],
      "stateMutability": "view",
      "type": "function"
    },
    {
      "inputs": [],
      "name": "name",
      "outputs": [
        {
          "internalType": "string",
          "name": "",
          "type": "string"
        }
      ],
      "stateMutability": "view",
      "type": "function"
    },
    {
      "inputs": [],
      "name": "owner",
      "outputs": [
        {
          "internalType": "address",
          "name": "",
          "type": "address"
        }
      ],
      "stateMutability": "view",
      "type": "function"
    },
    {
      "inputs": [
        {
          "internalType": "string",
          "name": "",
          "type": "string"
        },
        {
          "internalType": "uint256",
          "name": "",
          "type": "uint256"
        }
      ],
      "name": "skills",
      "outputs": [
        {
          "internalType": "string",
          "name": "",
          "type": "string"
        }
      ],
      "stateMutability": "view",
      "type": "function"
    },
    {
      "inputs": [],
      "name": "summary",
      "outputs": [
        {
          "internalType": "string",
          "name": "",
          "type": "string"
        }
      ],
      "stateMutability": "view",
      "type": "function"
    },
    {
      "inputs": [],
      "name": "title",
      "outputs": [
        {
          "internalType": "string",
          "name": "",
          "type": "string"
        }
      ],
      "stateMutability": "view",
      "type": "function"
    }
  ],
  "bytecode": "0x6040608081523462000a6f57620056aa803803806200001e8162000a74565b928339810160e08282031262000a6f5781516001600160401b039081811162000a6f57826200004f91850162000ab0565b916020928385015183811162000a6f57826200006d91870162000ab0565b908686015184811162000a6f57836200008891880162000ab0565b92606087015185811162000a6f5781620000a491890162000ab0565b96608081015186811162000a6f5782620000c091830162000ab0565b9060a081015187811162000a6f5783620000dc91830162000ab0565b9260c082015188811162000a6f57620000f6920162000ab0565b600080546001600160a01b03191633178155845195919390929091888711620005d8576001968754968888811c9816801562000a64575b8c891014620006b25781908c601f998a811162000a0e575b50508c908983116001146200099d57879262000991575b5050600019600383901b1c191690881b1787555b805190898211620006d1576002548881811c9116801562000986575b8c821014620006b257908b82898594116200092f575b50508b90888311600114620008c8578692620008bc575b5050600019600383901b1c191690871b176002555b8651888111620005d85760039788548881811c91168015620008b1575b8c821014620006b257908b82898594116200085b575b50508b90888311600114620007f7578692620007eb575b5050600019828a1b1c191690871b1787555b8a51996470686f6e6560d81b8b52602560059b600d8d82015220908051908a8211620007d75782548981811c91168015620007cc575b8d821014620007b857908c828f8b86951162000761575b5050508c90898311600114620006f1578792620006e5575b5050600019828b1b1c191690881b1790555b60258b5164195b585a5b60da1b8152600d8c8201522090805190898211620006d15782548881811c91168015620006c6575b8c821014620006b257908b82898594116200065c575b50508b90888311600114620005f8578692620005ec575b5050600019828a1b1c191690871b1790555b60288a51673634b735b2b234b760c11b8152600d60088201522090805190888211620005d85782548781811c91168015620005cd575b8b821014620005b95790818784931162000566575b508a9087831160011462000502578592620004f6575b505060001982891b1c191690861b1790555b602689516533b4ba343ab160d11b8152600d600682015220978251968711620004e2578854908582811c92168015620004d7575b89831014620004c3578482116200047d575b5050869286116001146200041157949550859291908362000405575b50501b92600019911b1c19161790555b51614b87908162000b238239f35b015193503880620003e7565b87815286812093969394938691601f198316915b8983831062000462575050501062000447575b50505050811b019055620003f7565b01519060f884600019921b161c191690553880808062000438565b85870151895590970196948501948893509081019062000425565b8983528883209085808a01821c8301938b8b10620004b9575b01901c019085905b828110620004ad5750620003cb565b8381550185906200049e565b9350829362000496565b634e487b7160e01b83526022600452602483fd5b91607f1691620003b9565b634e487b7160e01b82526041600452602482fd5b01519050388062000373565b8486528b86208994509190601f198416878e5b8282106200054e575050841162000535575b505050811b01905562000385565b0151600019838b1b60f8161c1916905538808062000527565b8385015186558c979095019493840193018e62000515565b9091508385528a8520878d818601901c8201928d8610620005af575b918e8b928796959401901c01915b828110620005a05750506200035d565b8781558594508a910162000590565b9250819262000582565b634e487b7160e01b85526022600452602485fd5b90607f169062000348565b634e487b7160e01b84526041600452602484fd5b01519050388062000300565b8487528c87208a94509190601f198416888f5b8282106200064457505084116200062b575b505050811b01905562000312565b0151600019838c1b60f8161c191690553880806200061d565b8385015186558d979095019493840193018f6200060b565b909192508487528d8983892092818701831c8401948710620006a8575b9186959493918d9301901c01915b8281106200069957508d9150620002e9565b8881558594508b910162000687565b9350829362000679565b634e487b7160e01b86526022600452602486fd5b90607f1690620002d3565b634e487b7160e01b85526041600452602485fd5b0151905038806200028f565b8a9350908d91601f198416868a52838a20938a905b8282106200073f575050841162000726575b505050811b019055620002a1565b0151600019838d1b60f8161c1916905538808062000718565b91929395968291958786015181550195019301908f918d969594939262000706565b90919293508589528a838a2092818701831c8401948710620007ae575b9186959493918e9301901c01915b8281106200079f57508f8f925062000277565b8981558594508c91016200078c565b935082936200077e565b634e487b7160e01b87526022600452602487fd5b90607f169062000260565b634e487b7160e01b86526041600452602486fd5b01519050388062000218565b8a87528c87208a94509190601f198416888f5b8282106200084357505084116200082a575b505050811b0187556200022a565b0151600019838c1b60f8161c191690553880806200081c565b8385015186558d979095019493840193018f6200080a565b909192508a8752888288209181860160051c8301938610620008a7575b918b91869594930160051c01915b8281106200089857508d915062000201565b8881558594508b910162000886565b9250819262000878565b90607f1690620001eb565b015190503880620001b9565b600287528c87208a94509190601f198416888f5b828210620009175750508411620008fd575b505050811b01600255620001ce565b015160001960f88460031b161c19169055388080620008ee565b8385015186558d979095019493840193018f620008dc565b9091925060028752888288209181860160051c83019386106200097c575b918b91869594930160051c01915b8281106200096d57508d9150620001a2565b8881558594508b91016200095b565b925081926200094d565b90607f16906200018c565b0151905038806200015c565b8a9350908d91601f198416858a52838a20938a905b828210620009ec5750508411620009d2575b505050811b01875562000170565b015160001960f88460031b161c19169055388080620009c4565b91929395968291958786015181550195019301908f918d9695949392620009b2565b909192508a8852898289209181860160051c830193861062000a5a575b918c91869594930160051c01915b82811062000a4b57508e915062000145565b8981558594508c910162000a39565b9250819262000a2b565b97607f16976200012d565b600080fd5b6040519190601f01601f191682016001600160401b0381118382101762000a9a57604052565b634e487b7160e01b600052604160045260246000fd5b919080601f8401121562000a6f5782516001600160401b03811162000a9a5760209062000ae6601f8201601f1916830162000a74565b9281845282828701011162000a6f5760005b81811062000b0e57508260009394955001015290565b858101830151848201840152820162000af856fe610360604052600436101561001357600080fd5b60003560e01c8063069a1d5b14613a6257806306fdde03146139bf57806318cbabc81461394a5780631db10fba146138645780632369fecc14613815578063444d0afe146137e5578063487e2db6146137b55780634a79d50c1461370f5780634cd0cb28146134f75780634df68447146134c7578063591ca0fb1461347d57806365a4cd5a14612fd057806370f2fa3314612aab5780638863db56146123545780638b859e0214611d9c5780638da5cb5b14611d735780639e9c8e5914611a97578063a447a55614611a67578063a4da229014611370578063b16a867c1461128e578063b36e7be514610d20578063b6262a0a146106d3578063d50bfbee14610199578063dcc60128146101695763eb60170f1461013057600080fd5b346101645760003660031901126101645761016061014c614912565b60405191829160208352602083019061413b565b0390f35b600080fd5b3461016457600036600319011261016457610160610185614594565b6040519182916020835260208301906140c3565b34610164576060366003190112610164576001600160401b03600435818111610164576101ca903690600401613d48565b6024918235818111610164576101e4903690600401613d48565b91604435828111610164576101fd903690600401613d48565b9261021360018060a01b036000541633146141b3565b81511561068157805115610629578351156105e5576040519161023583613c15565b825260209485830191825260408301948552600b5492600160401b8410156105d05760019283850180600b558510156105bb57600b600052600380950291827f0175b7a638427703f0dbe7bb9bbf987a2551717b34e79f33b5b1008d1fa01db90190518051908882116105a65781906102b8826102b28654613bdb565b866142c0565b8b90601f831160011461054257600092610537575b505060001982891b1c191690861b1790555b5180517f0175b7a638427703f0dbe7bb9bbf987a2551717b34e79f33b5b1008d1fa01dba830191878211610522576103218261031b8554613bdb565b856142c0565b8990601f831160011461049a577f0175b7a638427703f0dbe7bb9bbf987a2551717b34e79f33b5b1008d1fa01dbb949392916000918361048f575b505060001982891b1c191690861b1790555b01945190815194851161047b57506103908461038a8754613bdb565b876142c0565b8590601f85116001146103ff5792848093600080516020614af2833981519152989693606098966000956103f4575b50501b92600019911b1c19161790555b600d604051918083528201526c61636164656d6963466f63757360981b6040820152a1005b0151935089806103bf565b91939290601f1984169286600052876000209360005b81811061046657509185939160609896600080516020614af28339815191529a9896941061044c575b50505050811b0190556103cf565b01519060f884600019921b161c191690558680808061043e565b82840151865594870194928901928901610415565b634e487b7160e01b60009081526041600452fd5b015190508b8061035c565b9392918691601f19821690846000528c600020918d6000905b82821061050b57505096837f0175b7a638427703f0dbe7bb9bbf987a2551717b34e79f33b5b1008d1fa01dbb98106104f3575b505050811b01905561036e565b0151600019838b1b60f8161c191690558b80806104e6565b838a015185558b969094019392830192018e6104b3565b84634e487b7160e01b60005260416004526000fd5b015190508b806102cd565b60008581528d81208a9550929190601f198516908f5b82821061058d5750508411610575575b505050811b0190556102df565b0151600019838b1b60f8161c191690558b8080610568565b8484015186558c97909501949384019390810190610558565b85634e487b7160e01b60005260416004526000fd5b82634e487b7160e01b60005260326004526000fd5b50634e487b7160e01b60009081526041600452fd5b60405162461bcd60e51b815260206004820152601a818701527f49636f6e206e616d652063616e6e6f7420626520656d7074792e0000000000006044820152606490fd5b60405162461bcd60e51b815260206004820152602b818701527f41636164656d696320666f637573206465736372697074696f6e2063616e6e6f60448201526a3a1031329032b6b83a3c9760a91b6064820152608490fd5b60405162461bcd60e51b8152602060048201526025818701527f41636164656d696320666f637573207469746c652063616e6e6f74206265206560448201526436b83a3c9760d91b6064820152608490fd5b34610164576080366003190112610164576004356001600160401b03811161016457610703903690600401613d48565b6024356001600160401b03811161016457610722903690600401613d48565b6044356001600160401b03811161016457610741903690600401613d48565b6064356001600160401b03811161016457610760903690600401613fc8565b9161077660018060a01b036000541633146141b3565b8351151580610d16575b15610cc6576040519361079285613c30565b845260208401526040830152606082015260055490600160401b821015610ad0576001820180600555821015610cb057600560005280519182516001600160401b038111610ad057610814816107fb8460021b600080516020614a928339815191520154613bdb565b8460021b600080516020614a92833981519152016142c0565b6020601f8211600114610c225781929394600092610c17575b50508160011b916000199060031b1c1916178160021b600080516020614a9283398151915201555b60208201519182516001600160401b038111610ad0576108a58161088c600080516020614a728339815191528660021b0154613bdb565b600080516020614a728339815191528660021b016142c0565b6020601f8211600114610b895781929394600092610b7e575b50508160011b916000199060031b1c191617600080516020614a728339815191528360021b01555b7f036b6384b5eca791c62761152d0c79bb0604c104a5fb6f4eb0703f3154bb3db28260021b019160408201519283516001600160401b038111610ad057610937816109318454613bdb565b846142c0565b6020601f8211600114610af15790807f036b6384b5eca791c62761152d0c79bb0604c104a5fb6f4eb0703f3154bb3db394939260609697600092610ae6575b50508160011b916000199060031b1c19161790555b60021b0191015160208151916109a18385614277565b01916000526020600020916000905b8282106109ed57600080516020614af2833981519152606060405160208152600b60208201526a657870657269656e63657360a81b6040820152a1005b80518051906001600160401b038211610ad057610a1482610a0e8854613bdb565b886142c0565b602090601f8311600114610a60579282600194936020938695600092610a55575b5050600019600383901b1c191690841b1787555b019401910190926109b0565b015190508980610a35565b908660005260206000209160005b601f1985168110610ab8575083602093600196938796938794601f19811610610a9f575b505050811b018755610a49565b015160001960f88460031b161c19169055898080610a92565b91926020600181928685015181550194019201610a6e565b634e487b7160e01b600052604160045260246000fd5b015190508780610976565b601f198216958360005260206000209660005b818110610b6657509660019284927f036b6384b5eca791c62761152d0c79bb0604c104a5fb6f4eb0703f3154bb3db39796956060999a10610b4d575b505050811b01905561098b565b015160001960f88460031b161c19169055878080610b40565b83830151895560019098019760209384019301610b04565b0151905084806108be565b600080516020614a728339815191528460021b0160005260206000209060005b601f1984168110610bff5750600193949583601f19811610610be6575b505050811b01600080516020614a728339815191528360021b01556108e6565b015160001960f88460031b161c19169055848080610bc6565b9091602060018192858a015181550193019101610ba9565b01519050848061082d565b8260021b600080516020614a928339815191520160005260206000209060005b601f1984168110610c985750600193949583601f19811610610c7f575b505050811b018160021b600080516020614a928339815191520155610855565b015160001960f88460031b161c19169055848080610c5f565b9091602060018192858a015181550193019101610c42565b634e487b7160e01b600052603260045260246000fd5b60405162461bcd60e51b815260206004820152602260248201527f5469746c6520616e6420636f6d70616e792063616e6e6f7420626520656d70746044820152613c9760f11b6064820152608490fd5b5080511515610780565b34610164576080366003190112610164576001600160401b0360043581811161016457610d51903690600401613d48565b9060243581811161016457610d6a903690600401613d48565b60443582811161016457610d82903690600401613fc8565b60643583811161016457610d9a903690600401613d48565b91610db060018060a01b036000541633146141b3565b8451151580611284575b1561123f5760405194610dcc86613c30565b855260208501526040840152606083015260075491600160401b831015610ad0576001830180600755831015610cb05760076000528051928351838111610ad057610e4781610e2e8460021b600080516020614ad28339815191520154613bdb565b8460021b600080516020614ad2833981519152016142c0565b6020601f82116001146111b05781929394956000926111a5575b50508160011b916000199060031b1c1916178160021b600080516020614ad283398151915201555b7fa66cc928b5edb82af9bd49922954155ab7b0942694bea4ce44661d9a8736c6898160021b016020830151805190858211610ad0578190610ece826102b28654613bdb565b602090601f831160011461113f57600092611134575b50508160011b916000199060031b1c19161790555b7fa66cc928b5edb82af9bd49922954155ab7b0942694bea4ce44661d9a8736c68a8160021b016040830151906020825192610f348484614277565b019060005260206000206000915b83831061105e5760608601518051600287901b7fa66cc928b5edb82af9bd49922954155ab7b0942694bea4ce44661d9a8736c68b0190898111610ad057610f8d816109318454613bdb565b602092601f8211600114610ffa5792819293600092610fef575b50508160011b916000199060031b1c19161790555b600080516020614af283398151915260606040516020815260086020820152670e4cae6cac2e4c6d60c31b6040820152a1005b015190508380610fa7565b601f198216938360005260206000209160005b868110611046575083600195961061102d575b505050811b019055610fbc565b015160001960f88460031b161c19169055838080611020565b9192602060018192868501518155019401920161100d565b8051805190888211610ad057611078826102b28654613bdb565b602090601f83116001146110c45792826001949360209386956000926110b9575b5050600019600383901b1c191690841b1785555b01920192019190610f42565b015190508c80611099565b908460005260206000209160005b601f198516811061111c575083602093600196938796938794601f19811610611103575b505050811b0185556110ad565b015160001960f88460031b161c191690558c80806110f6565b919260206001819286850151815501940192016110d2565b015190508680610ee4565b6000858152602081209350601f198516905b81811061118d5750908460019594939210611174575b505050811b019055610ef9565b015160001960f88460031b161c19169055868080611167565b92936020600181928786015181550195019301611151565b015190508580610e61565b8260021b600080516020614ad28339815191520160005260206000209060005b601f1984168110611227575060019394959683601f1981161061120e575b505050811b018160021b600080516020614ad28339815191520155610e89565b015160001960f88460031b161c191690558580806111ee565b9091602060018192858b0151815501930191016111d0565b60405162461bcd60e51b815260206004820152601f60248201527f5469746c6520616e6420646174652063616e6e6f7420626520656d7074792e006044820152606490fd5b5080511515610dba565b346101645760003660031901126101645760405160006003546112b081613bdb565b8084529060019081811690811561134957506001146112ee575b610160846112da81860382613c81565b604051918291602083526020830190613ab5565b6003600090815292507fc2575a0e9e593c00f959f8c92f12db2869c3395a3b0502d05e2516446f71f85b5b8284106113315750505081016020016112da826112ca565b80546020858701810191909152909301928101611319565b60ff191660208087019190915292151560051b850190920192506112da91508390506112ca565b346101645760003660031901126101645760256040516470686f6e6560d81b8152600d6005820152206101e052602560405164195b585a5b60da1b8152600d600582015220610180526028604051673634b735b2b234b760c11b8152600d6008820152206101205260266040516533b4ba343ab160d11b8152600d6006820152206102c05261141f60405161140481613c66565b60098152686c616e67756167657360b81b60208201526144be565b60a05261144d60405161143181613c66565b600a8152696672616d65776f726b7360b01b60208201526144be565b60e05261147a60405161145f81613c66565b600981526864617461626173657360b81b60208201526144be565b6101a0526114a460405161148d81613c66565b600581526418db1bdd5960da1b60208201526144be565b6114cb6040516114b381613c66565b60068152656465766f707360d01b60208201526144be565b610160526114f86040516114de81613c66565b6008815267736563757269747960c01b60208201526144be565b6102a05261152660405161150b81613c66565b600981526865787065727469736560b81b60208201526144be565b6101405261155060405161153981613c66565b600581526437ba3432b960d91b60208201526144be565b6102405261155c6144ec565b61022052611568614594565b6102e05261157461464e565b610200526115806146f6565b6103005261158c6147af565b608052611597614869565b610320526115a3614912565b610260526102c06020604051806102805201526000906001546115c581613bdb565b90816102e0610280510152600181169081600014611a4257506001146119e0575b50610280516040601f198285030191015260009160025461160681613bdb565b8060c05282526001811690816000146119c05750600114611945575b5061028051808303601f190160609091015260035460009261164382613bdb565b808252916001811690811561191d57506001146118aa575b5061189661186061184661182f6118156117fb6117e16117c76117ad61179361177961175f8d8f61172e6117156116fc6116e36116ca6116b161174896610280516080601f19828403019101526101e0516149bb565b6102805160a0601f1982840301910152610180516149bb565b6102805160c0601f1982840301910152610120516149bb565b6102805160e0601f19828403019101526102c0516149bb565b61028051610100601f198284030191015260a051613d9e565b61028051610120601f198284030191015260e051613d9e565b61028051610140601f19828403019101526101a051613d9e565b9061028051610160601f1982850301910152613d9e565b61028051610180601f198284030191015261016051613d9e565b610280516101a0601f19828403019101526102a051613d9e565b610280516101c0601f198284030191015261014051613d9e565b610280516101e0601f198284030191015261024051613d9e565b61028051610200601f198284030191015261022051614048565b61028051610220601f19828403019101526102e0516140c3565b61028051610240601f198284030191015261020051613b36565b61028051610260601f198284030191015261030051613e75565b6102808051808303601f1901910152608051613dfa565b610280516102a0601f198284030191015261032051613f29565b610280516102c0601f198284030191015261188261028051916102605161413b565b03601f198101610280515261028051613c81565b602061028051818151910120604051908152f35b90925060036000527fc2575a0e9e593c00f959f8c92f12db2869c3395a3b0502d05e2516446f71f85b6000610340525b6103405184811015611906579060019160208254918501015201916020610340510161034052916118da565b50506103405101602001915061184661182f61165b565b60ff191660208084019190915292151560051b9091019091019250611846905061182f61165b565b915060026000527f405787fa12a823e0f2b7631cc41b3ba8828b3321ca811111fa75cd3aa3bb5ace6101005260006101c0525b60c0516101c051908110156119ae57602061010051549184010152600161010051016101005260206101c051016101c052611978565b50906020906101c05101019082611622565b9050602092935060ff19168282015260c051151560051b01019082611622565b90915060016000527fb10e2d527612073b26eecdfd717e6a320cf44b4afac2b0732d9fcbe2b7fa0cf66000905b828210611a275750610300915061028051010190826115e6565b60018160209254610300856102805101015201910190611a0d565b905061030092935060ff191682610280510152151560051b61028051010190826115e6565b3461016457600036600319011261016457610160611a836144ec565b604051918291602083526020830190614048565b34610164576040366003190112610164576001600160401b0360043581811161016457611ac8903690600401613d48565b90602491823582811161016457611ae3903690600401613fc8565b90611af960018060a01b036000541633146141b3565b805115611d2f57815115611ceb5760005b8251811015611b87576020808260051b850101515115611b4b57506000198114611b3657600101611b0a565b84634e487b7160e01b60005260116004526000fd5b6064906016876040519262461bcd60e51b845260048401528201527529b5b4b6361031b0b73737ba1031329032b6b83a3c9760511b6044820152fd5b50926040518481809651611ba1816020998a809601613a92565b810160048152030190209284835193611bba8587614277565b019360005284600020916000945b848610611bff57600080516020614af283398151915260608860066040519180835282015265736b696c6c7360d01b6040820152a1005b8051805190848211611cd657908891611c2282611c1c8954613bdb565b896142c0565b8290601f8311600114611c6b57918060019592869594600092611c60575b5050600019600383901b1c191690841b1787555b01940195019492611bc8565b015190508c80611c40565b90601f1983169188600052846000209260005b818110611cbe5750916001969391858897969410611ca5575b505050831b83018755611c54565b015160001960f88460031b161c191690558b8080611c97565b8284015185558d966001909501949384019301611c7e565b83634e487b7160e01b60005260416004526000fd5b60405162461bcd60e51b815260206004820152601c818601527f536b696c6c73206c6973742063616e6e6f7420626520656d7074792e000000006044820152606490fd5b60405162461bcd60e51b8152602060048201526019818601527f43617465676f72792063616e6e6f7420626520656d7074792e000000000000006044820152606490fd5b34610164576000366003190112610164576000546040516001600160a01b039091168152602090f35b34610164576080366003190112610164576004356001600160401b03811161016457611dcc903690600401613d48565b6024356001600160401b03811161016457611deb903690600401613fc8565b6044356001600160401b03811161016457611e0a903690600401613d48565b906064356001600160401b03811161016457611e2a903690600401613d48565b611e3f60018060a01b036000541633146141b3565b83511561230f5760ff6040516020818751611e5d8183858c01613a92565b8101600c81520301902054166122ba5760405192611e7a84613c30565b8484526020840192835260408401526060830152600654600160401b811015610ad057806001611ead9201600655614305565b9190916122a45782518051906001600160401b038211610ad0578190611ed78261038a8754613bdb565b602090601f83116001146122385760009261222d575b50508160011b916000199060031b1c19161782555b6001820190516020815191611f178385614277565b01916000526020600020916000905b828210612150575050505060408201518051906001600160401b038211610ad057611f6182611f586002860154613bdb565b600286016142c0565b602090601f83116001146120dc579180606094926003946000926120d1575b50508160011b9160001990851b1c19161760028201555b019101518051906001600160401b038211610ad057611fba8261031b8554613bdb565b602090601f8311600114612062579180602094926120039694600092612057575b50508160011b916000199060031b1c19161790555b8160405193828580945193849201613a92565b8101600c815203019020600160ff19825416179055600080516020614af2833981519152604051602081528061205260208201604090600881526770726f6a6563747360c01b60208201520190565b0390a1005b015190508680611fdb565b90601f198316918460005260206000209260005b8181106120b95750926001928592612003989660209896106120a0575b505050811b019055611ff0565b015160001960f88460031b161c19169055868080612093565b92936020600181928786015181550195019301612076565b015190508780611f80565b906002840160005260206000209160005b601f19851681106121385750926060949260019260039583601f19811610612120575b505050811b016002820155611f97565b015160001983871b60f8161c19169055878080612110565b919260206001819286850151815501940192016120ed565b80518051906001600160401b038211610ad05761217182610a0e8854613bdb565b602090601f83116001146121bd5792826001949360209386956000926121b2575b5050600019600383901b1c191690841b1787555b01940191019092611f26565b015190508c80612192565b908660005260206000209160005b601f1985168110612215575083602093600196938796938794601f198116106121fc575b505050811b0187556121a6565b015160001960f88460031b161c191690558c80806121ef565b919260206001819286850151815501940192016121cb565b015190508680611eed565b9250846000526020600020906000935b601f1984168510612289576001945083601f19811610612270575b505050811b018255611f02565b015160001960f88460031b161c19169055868080612263565b81810151835560209485019460019093019290910190612248565b634e487b7160e01b600052600060045260246000fd5b60405162461bcd60e51b815260206004820152602760248201527f50726f6a65637420776974682074686973207469746c6520616c72656164792060448201526632bc34b9ba399760c91b6064820152608490fd5b60405162461bcd60e51b815260206004820152601e60248201527f50726f6a656374207469746c652063616e6e6f7420626520656d7074792e00006044820152606490fd5b346101645760a0366003190112610164576004356001600160401b03811161016457612384903690600401613d48565b6024356001600160401b038111610164576123a3903690600401613d48565b6044356001600160401b038111610164576123c2903690600401613d48565b6064356001600160401b038111610164576123e1903690600401613d48565b906084356001600160401b03811161016457612401903690600401613fc8565b9261241760018060a01b036000541633146141b3565b845115612a5a576040519461242b86613c4b565b85526020850152604084015260608301526080820152600854600160401b811015610ad0576001810180600855811015610cb057600860005281519182516001600160401b038111610ad0576124b18161249860058602600080516020614b128339815191520154613bdb565b60058602600080516020614b12833981519152016142c0565b6020601f82116001146129cc57819293946000926129c1575b50508160011b916000199060031b1c19161760058302600080516020614b1283398151915201555b60208101519182516001600160401b038111610ad05761254281612529600080516020614b32833981519152600586020154613bdb565b600080516020614b3283398151915260058602016142c0565b6020601f82116001146129335781929394600092612928575b50508160011b916000199060031b1c191617600080516020614b328339815191526005830201555b60408201519182516001600160401b038111610ad0576125d3816125ba600080516020614ab2833981519152600587020154613bdb565b600080516020614ab283398151915260058702016142c0565b6020601f821160011461289a578192939460009261288f575b50508160011b916000199060031b1c191617600080516020614ab28339815191526005840201555b7ff3f7a9fe364faab93b216da50a3214154f22a0a2b415b23a84c8169e8b636ee660058302019160608201519283516001600160401b038111610ad05761265f816109318454613bdb565b6020601f82116001146128005791817ff3f7a9fe364faab93b216da50a3214154f22a0a2b415b23a84c8169e8b636ee79492600594608097986000926127f5575b50508160011b916000199060031b1c19161790555b020191015160208151916126c98385614277565b01916000526020600020916000905b82821061271857600080516020614af2833981519152606060405160208152600e60208201526d63657274696669636174696f6e7360901b6040820152a1005b80518051906001600160401b038211610ad05761273982610a0e8854613bdb565b602090601f831160011461278557928260019493602093869560009261277a575b5050600019600383901b1c191690841b1787555b019401910190926126d8565b01519050898061275a565b908660005260206000209160005b601f19851681106127dd575083602093600196938796938794601f198116106127c4575b505050811b01875561276e565b015160001960f88460031b161c191690558980806127b7565b91926020600181928685015181550194019201612793565b0151905088806126a0565b601f198216958360005260206000209660005b8181106128775750926080969760059593600193837ff3f7a9fe364faab93b216da50a3214154f22a0a2b415b23a84c8169e8b636ee799971061285e575b505050811b0190556126b5565b015160001960f88460031b161c19169055888080612851565b83830151895560019098019760209384019301612813565b0151905084806125ec565b600080516020614ab2833981519152600585020160005260206000209060005b601f19841681106129105750600193949583601f198116106128f7575b505050811b01600080516020614ab2833981519152600584020155612614565b015160001960f88460031b161c191690558480806128d7565b9091602060018192858a0151815501930191016128ba565b01519050848061255b565b600080516020614b32833981519152600584020160005260206000209060005b601f19841681106129a95750600193949583601f19811610612990575b505050811b01600080516020614b32833981519152600583020155612583565b015160001960f88460031b161c19169055848080612970565b9091602060018192858a015181550193019101612953565b0151905084806124ca565b60058402600080516020614b128339815191520160005260206000209060005b601f1984168110612a425750600193949583601f19811610612a29575b505050811b0160058302600080516020614b1283398151915201556124f2565b015160001960f88460031b161c19169055848080612a09565b9091602060018192858a0151815501930191016129ec565b60405162461bcd60e51b815260206004820152602360248201527f43657274696669636174696f6e206e616d652063616e6e6f7420626520656d706044820152623a3c9760e91b6064820152608490fd5b34610164576080366003190112610164576001600160401b0360043581811161016457612adc903690600401613d48565b90602491823582811161016457612af7903690600401613d48565b9260443583811161016457612b10903690600401613d48565b9360643584811161016457612b29903690600401613d48565b91612b3f60018060a01b036000541633146141b3565b835115612f8c5760405193612b5385613c30565b8452602093848101928352604081019687526060810193845260095492600160401b841015612f775760019384810180600955811015612f6257600960005260021b91827f6e1540171b6c0c960b71a7020d9f60077f6af931a8bbf590da0223dacf75c7af0190518051908982116105a6578190612bd5826102b28654613bdb565b8990601f8311600114612eff57600092612ef4575b5050600019600383901b1c191690861b1790555b5180517f6e1540171b6c0c960b71a7020d9f60077f6af931a8bbf590da0223dacf75c7b0830191888211610522578190612c3c826102b28654613bdb565b8890601f8311600114612e9157600092612e86575b5050600019600383901b1c191690851b1790555b7f6e1540171b6c0c960b71a7020d9f60077f6af931a8bbf590da0223dacf75c7b181019651968751878111611cd657612ca2816109318454613bdb565b86601f8211600114612dfe5781907f6e1540171b6c0c960b71a7020d9f60077f6af931a8bbf590da0223dacf75c7b295969798999a600092612df3575b5050600019600383901b1c191690861b1790555b01925190815195861161047b5750612d0f8561031b8554613bdb565b8390601f8611600114612d7b57948060609594938193600080516020614af283398151915298600094612d70575b50501b916000199060031b1c19161790555b6009604051918083528201526832b23ab1b0ba34b7b760b91b6040820152a1005b015192508880612d3d565b601f9591951982169584600052856000209160005b888110612dde575090839291606097969594600080516020614af28339815191529910612dc5575b505050811b019055612d4f565b015160001960f88460031b161c19169055868080612db8565b81830151845592850192918701918701612d90565b015190508a80612cdf565b601f1982169983600052886000209a60005b818110612e715750918798999a9b91847f6e1540171b6c0c960b71a7020d9f60077f6af931a8bbf590da0223dacf75c7b29899959410612e58575b505050811b019055612cf3565b015160001960f88460031b161c191690558a8080612e4b565b838301518d559b88019b928a01928a01612e10565b015190508a80612c51565b90879350601f19831691856000528a6000209260005b8c828210612ede5750508411612ec5575b505050811b019055612c65565b015160001960f88460031b161c191690558a8080612eb8565b8385015186558b97909501949384019301612ea7565b015190508b80612bea565b90889350601f19831691856000528b6000209260005b8d828210612f4c5750508411612f33575b505050811b019055612bfe565b015160001960f88460031b161c191690558b8080612f26565b8385015186558c97909501949384019301612f15565b83634e487b7160e01b60005260326004526000fd5b82634e487b7160e01b60005260416004526000fd5b60649060176040519162461bcd60e51b8352602060048401528201527f4465677265652063616e6e6f7420626520656d7074792e0000000000000000006044820152fd5b34610164576060366003190112610164576004356001600160401b03811161016457613000903690600401613d48565b6024356001600160401b0381116101645761301f903690600401613d48565b6044356001600160401b0381116101645761303e903690600401613fc8565b61305360018060a01b036000541633146141b3565b82511561342d576040519261306784613c15565b8352602083019182526040830152600a5490600160401b821015610ad0576001820180600a55821015610cb057600a600052600382027fc65a7bb8d6351c1cf70c95a316cc6a92839c986682d98bc35f958f4883f9d2a80183518051906001600160401b038211610ad05781906130e2826102b28654613bdb565b602090601f83116001146133c7576000926133bc575b50508160011b916000199060031b1c19161790555b518051906001600160401b038211610ad05761315982613140600080516020614a52833981519152600387020154613bdb565b600080516020614a5283398151915260038702016142c0565b602090601f83116001146133085792827fc65a7bb8d6351c1cf70c95a316cc6a92839c986682d98bc35f958f4883f9d2aa936003936040966000926132fd575b50508160011b9160001990851b1c191617600080516020614a5283398151915283830201555b020191015160208151916131d38385614277565b01916000526020600020916000905b82821061322057600080516020614af2833981519152606060405160208152600c60208201526b616368696576656d656e747360a01b6040820152a1005b80518051906001600160401b038211610ad05761324182610a0e8854613bdb565b602090601f831160011461328d579282600194936020938695600092613282575b5050600019600383901b1c191690841b1787555b019401910190926131e2565b015190508980613262565b908660005260206000209160005b601f19851681106132e5575083602093600196938796938794601f198116106132cc575b505050811b018755613276565b015160001960f88460031b161c191690558980806132bf565b9192602060018192868501518155019401920161329b565b015190508780613199565b90600080516020614a52833981519152600385020160005260206000209160005b601f19851681106133a4575083600393604096936001937fc65a7bb8d6351c1cf70c95a316cc6a92839c986682d98bc35f958f4883f9d2aa97601f1981161061338c575b505050811b01600080516020614a5283398151915283830201556131bf565b015160001983871b60f8161c1916905587808061336d565b91926020600181928685015181550194019201613329565b0151905086806130f8565b6000858152602081209350601f198516905b81811061341557509084600195949392106133fc575b505050811b01905561310d565b015160001960f88460031b161c191690558680806133ef565b929360206001819287860151815501950193016133d9565b60405162461bcd60e51b815260206004820152602260248201527f416368696576656d656e74207469746c652063616e6e6f7420626520656d70746044820152613c9760f11b6064820152608490fd5b34610164576020366003190112610164576004356001600160401b038111610164576112da6134b86020611ff0610160943690600401613d48565b8101600d815203019020613ca2565b34610164576000366003190112610164576101606134e3614869565b604051918291602083526020830190613f29565b3461016457602080600319360112610164576004359061352260018060a01b036000541633146141b3565b60065491828110156136d35761354061353a82614305565b50613ca2565b92600019908181019081116136bd5761355890614305565b5061356283614305565b6122a45781810361367d575b50506006548015613667570161358381614305565b6122a4576135908161422e565b60018082018054906000815581613642575b5050507f41fe3d0ec098bb58f17592a2d8b3e186849740adbce2afe3e492966d0ce830f9946135fa926135e46003846135de60028a970161422e565b0161422e565b6006558160405193828580945193849201613a92565b8101600c81520301902060ff1981541690556040519182916040835261363960408401604090600881526770726f6a6563747360c01b60208201520190565b918301520390a1005b60005285600020908101905b818110156135a25780613661849261422e565b0161364e565b634e487b7160e01b600052603160045260246000fd5b6003808361368e6136b6958561433f565b61369e6001820160018601614417565b6136ae600282016002860161433f565b01910161433f565b848061356e565b634e487b7160e01b600052601160045260246000fd5b60405162461bcd60e51b815260048101839052601460248201527324b73232bc1037baba1037b3103137bab732399760611b6044820152606490fd5b3461016457600036600319011261016457604051600060025461373181613bdb565b80845290600190818116908115611349575060011461375a57610160846112da81860382613c81565b6002600090815292507f405787fa12a823e0f2b7631cc41b3ba8828b3321ca811111fa75cd3aa3bb5ace5b82841061379d5750505081016020016112da826112ca565b80546020858701810191909152909301928101613785565b34610164576000366003190112610164576101606137d16146f6565b604051918291602083526020830190613e75565b34610164576000366003190112610164576101606138016147af565b604051918291602083526020830190613dfa565b34610164576020366003190112610164576004356001600160401b0381116101645761385061384b610160923690600401613d48565b6144be565b604051918291602083526020830190613d9e565b346101645760003660031901126101645761392060256040516470686f6e6560d81b8152600d600582015220610160602560405164195b585a5b60da1b8152600d6005820152209161393c6028604051673634b735b2b234b760c11b8152600d6008820152209161392e61390b6139056138ff6138f960266040516533b4ba343ab160d11b8152600d60068201522095613ca2565b98613ca2565b95613ca2565b92613ca2565b93604051978897608089526080890190613ab5565b908782036020890152613ab5565b908582036040870152613ab5565b908382036060850152613ab5565b34610164576040366003190112610164576004356001600160401b0381116101645761397a903690600401613d48565b6139966020602435928160405193828580945193849201613a92565b81016004815203019020805482101561016457610160916112da91600052602060002001613ca2565b3461016457600036600319011261016457604051600060018054906139e382613bdb565b808552918181169081156113495750600114613a0957610160846112da81860382613c81565b600081815292507fb10e2d527612073b26eecdfd717e6a320cf44b4afac2b0732d9fcbe2b7fa0cf65b828410613a4a5750505081016020016112da826112ca565b80546020858701810191909152909301928101613a32565b3461016457600036600319011261016457610160613a7e61464e565b604051918291602083526020830190613b36565b60005b838110613aa55750506000910152565b8181015183820152602001613a95565b90602091613ace81518092818552858086019101613a92565b601f01601f1916010190565b908082519081815260208091019281808460051b8301019501936000915b848310613b085750505050505090565b9091929394958480613b26600193601f198682030187528a51613ab5565b9801930193019194939290613af8565b908082519081815260208091019281808460051b8301019501936000915b848310613b645750505050505090565b9091929394958480613bcb600193601f198682030187528a51613bb8613ba5613b9583516080808752860190613ab5565b8684015185820388870152613ab5565b6040808401519085830390860152613ada565b9160608092015191818403910152613ab5565b9801930193019194939290613b54565b90600182811c92168015613c0b575b6020831014613bf557565b634e487b7160e01b600052602260045260246000fd5b91607f1691613bea565b606081019081106001600160401b03821117610ad057604052565b608081019081106001600160401b03821117610ad057604052565b60a081019081106001600160401b03821117610ad057604052565b604081019081106001600160401b03821117610ad057604052565b90601f801991011681019081106001600160401b03821117610ad057604052565b9060405191826000825492613cb684613bdb565b908184526001948581169081600014613d255750600114613ce2575b5050613ce092500383613c81565b565b9093915060005260209081600020936000915b818310613d0d575050613ce093508201013880613cd2565b85548884018501529485019487945091830191613cf5565b915050613ce094506020925060ff191682840152151560051b8201013880613cd2565b81601f82011215610164578035906001600160401b038211610ad05760405192613d7c601f8401601f191660200185613c81565b8284526020838301011161016457816000926020809301838601378301015290565b90808183519182825260208080809401958560051b01019501936000915b848310613dcc5750505050505090565b9091929394958480613dea600193601f198682030187528a51613ab5565b9801930193019194939290613dbc565b90815180825260208092019182818360051b85019501936000915b848310613e255750505050505090565b9091929394958480613e6583856001950387528a51613bb8613e52613b9583516080808752860190613ab5565b6040808401519085830390860152613ab5565b9801930193019194939290613e15565b90815180825260208092019182818360051b85019501936000915b848310613ea05750505050505090565b9091929394958480613f1983856001950387528a51613f06613ef3613ee0613ed0845160a0808852870190613ab5565b8785015186820389880152613ab5565b6040808501519086830390870152613ab5565b6060808401519085830390860152613ab5565b9160808092015191818403910152613ada565b9801930193019194939290613e90565b90815180825260208092019182818360051b82019501936000915b848310613f545750505050505090565b9091929394958480613fa183856001950387528a51613f8e613f7e82516060808652850190613ab5565b8583015184820387860152613ab5565b9160408092015191818403910152613ada565b9801930193019194939290613f44565b6001600160401b038111610ad05760051b60200190565b9080601f8301121561016457813590613fe082613fb1565b92613fee6040519485613c81565b828452602092838086019160051b8301019280841161016457848301915b84831061401c5750505050505090565b82356001600160401b03811161016457869161403d84848094890101613d48565b81520192019161400c565b90815180825260208092019182818360051b82019501936000915b8483106140735750505050505090565b90919293949584806140b383856001950387528a516140a0613e52613b9583516080808752860190613ab5565b9160608092015191818403910152613ada565b9801930193019194939290614063565b90815180825260208092019182818360051b82019501936000915b8483106140ee5750505050505090565b909192939495848061412b83856001950387528a51613bb8613e5261411b83516080808752860190613ab5565b8684015185820388870152613ada565b98019301930191949392906140de565b90815180825260208092019182818360051b85019501936000915b8483106141665750505050505090565b90919293949584806141a383856001950387528a51614190613f7e82516060808652850190613ab5565b9160408092015191818403910152613ab5565b9801930193019194939290614156565b156141ba57565b60405162461bcd60e51b815260206004820152602f60248201527f4f6e6c792074686520636f6e7472616374206f776e65722063616e2063616c6c60448201526e103a3434b990333ab731ba34b7b71760891b6064820152608490fd5b818110614222575050565b60008155600101614217565b6142388154613bdb565b9081614242575050565b81601f60009311600114614254575055565b908083918252614273601f60208420940160051c840160018501614217565b5555565b90600160401b8111610ad05781549181815582821061429557505050565b600052602060002091820191015b8181106142ae575050565b806142ba60019261422e565b016142a3565b9190601f81116142cf57505050565b613ce0926000526020600020906020601f840160051c830193106142fb575b601f0160051c0190614217565b90915081906142ee565b600654811015610cb057600660005260021b7ff652222313e28459528d920b65115c16c04f3efc82aaedc97be59f3f377c0d3f0190600090565b90808214614413576143518154613bdb565b906001600160401b038211610ad0578190614370826102b28654613bdb565b600090601f83116001146143a75760009261439c575b50508160011b916000199060031b1c1916179055565b015490503880614386565b81526020808220858352818320935090601f1985169083905b8282106143fa5750509084600195949392106143e1575b505050811b019055565b015460001960f88460031b161c191690553880806143d7565b84958192958501548155600180910196019401906143c0565b5050565b8181146144135781549161442b8383614277565b6000526020600020906000526020600020906000905b83821061444e5750505050565b8061445b6001928561433f565b928101929181019101614441565b90815461447581613fb1565b926144836040519485613c81565b818452600090815260208082208186015b8484106144a2575050505050565b60018381926144b085613ca2565b815201920193019290614494565b6144da60206144e9928160405193828580945193849201613a92565b81016004815203019020614469565b90565b600554906144f982613fb1565b91604061450881519485613c81565b818452836020809101916005600052600080516020614a92833981519152906000935b85851061453a57505050505050565b600484600192845161454b81613c30565b61455487613ca2565b8152614561858801613ca2565b8382015261457160028801613ca2565b8682015261458160038801614469565b606082015281520193019401939161452b565b600654906145a182613fb1565b9160406145b081519485613c81565b8184528360208091019160066000527ff652222313e28459528d920b65115c16c04f3efc82aaedc97be59f3f377c0d3f906000935b8585106145f457505050505050565b600484600192845161460581613c30565b61460e87613ca2565b815261461b858801614469565b8382015261462b60028801613ca2565b8682015261463b60038801613ca2565b60608201528152019301940193916145e5565b6007549061465b82613fb1565b91604061466a81519485613c81565b818452836020809101916007600052600080516020614ad2833981519152906000935b85851061469c57505050505050565b60048460019284516146ad81613c30565b6146b687613ca2565b81526146c3858801613ca2565b838201526146d360028801614469565b868201526146e360038801613ca2565b606082015281520193019401939161468d565b6008549061470382613fb1565b91604061471281519485613c81565b818452836020809101916008600052600080516020614b12833981519152906000935b85851061474457505050505050565b600584600192845161475581613c4b565b61475e87613ca2565b815261476b858801613ca2565b8382015261477b60028801613ca2565b8682015261478b60038801613ca2565b606082015261479c60048801614469565b6080820152815201930194019391614735565b600954906147bc82613fb1565b9160406147cb81519485613c81565b8184528360208091019160096000527f6e1540171b6c0c960b71a7020d9f60077f6af931a8bbf590da0223dacf75c7af906000935b85851061480f57505050505050565b600484600192845161482081613c30565b61482987613ca2565b8152614836858801613ca2565b8382015261484660028801613ca2565b8682015261485660038801613ca2565b6060820152815201930194019391614800565b600a549061487682613fb1565b91604061488581519485613c81565b81845283602080910191600a6000527fc65a7bb8d6351c1cf70c95a316cc6a92839c986682d98bc35f958f4883f9d2a8906000935b8585106148c957505050505050565b60038460019284516148da81613c15565b6148e387613ca2565b81526148f0858801613ca2565b8382015261490060028801614469565b868201528152019301940193916148ba565b600b549061491f82613fb1565b91604061492e81519485613c81565b81845283602080910191600b6000527f0175b7a638427703f0dbe7bb9bbf987a2551717b34e79f33b5b1008d1fa01db9906000935b85851061497257505050505050565b600384600192845161498381613c15565b61498c87613ca2565b8152614999858801613ca2565b838201526149a960028801613ca2565b86820152815201930194019391614963565b90600092918054916149cc83613bdb565b918282526001938481169081600014614a2e57506001146149ee575b50505050565b90919394506000526020928360002092846000945b838610614a1a5750505050010190388080806149e8565b805485870183015294019385908201614a03565b9294505050602093945060ff191683830152151560051b010190388080806149e856fec65a7bb8d6351c1cf70c95a316cc6a92839c986682d98bc35f958f4883f9d2a9036b6384b5eca791c62761152d0c79bb0604c104a5fb6f4eb0703f3154bb3db1036b6384b5eca791c62761152d0c79bb0604c104a5fb6f4eb0703f3154bb3db0f3f7a9fe364faab93b216da50a3214154f22a0a2b415b23a84c8169e8b636ee5a66cc928b5edb82af9bd49922954155ab7b0942694bea4ce44661d9a8736c68870a1cfe867989ce2ae7d36e8dfa2d3f6ad43678fe220e15a59c1d503092f9413f3f7a9fe364faab93b216da50a3214154f22a0a2b415b23a84c8169e8b636ee3f3f7a9fe364faab93b216da50a3214154f22a0a2b415b23a84c8169e8b636ee4a2646970667358221220d3f3fd7d1c9f369a68e487fe9dd9b12aa43b208831dd855afebc2a52500bcd5564736f6c63430008140033",
  "linkReferences": {},
  "deployedLinkReferences": {}
}